:020000040800F2
:10000000B1AA010000000000000000000000000094
:1000100000000000000000000000000000000000E0
:1000200000000000000000000000000000000000D0
:1000300000000000000000000000000000000000C0
:1000400000000000000000000000000000000000B0
:1000500000000000000000000000000000000000A0
:100060000000000000000000000000000000000090
:100070000000000000000000000000000000000080
:100080000000000000000000000000000000000070
:100090000000000000000000000000000000000060
:1000A0000000000000000000000000000000000050
:1000B0000000000000000000000000000000000040
:1000C0000000000000000000000000000000000030
:1000D0000000000000000000000000000000000020
:1000E0000000000000000000000000000000000010
:1000F0000000000000000000000000000000000000
:1001000000000000000000000000000000000000EF
:1001100000000000000000000000000000000000DF
:1001200000000000000000000000000000000000CF
:1001300000000000000000000000000000000000BF
:1001400000000000000000000000000000000000AF
:100150000000000000000000000000007370043088
:10016000170500001305C5FF8545F605637BB5003F
:1001700089816378B500170500001305C5002E9529
:1001800002859302002073A0027D970200009382F3
:1001900062E77390723097120000938262CE739080
:1001A000C27E73E0C07E971200009382A2C5739056
:1001B0005230971100189381E1A0178100181301A4
:1001C00061E4172500001305A5E497050018938541
:1001D00065E3170600181306E61F63FAC5008322BD
:1001E000050023A0550011059105E3EAC5FE17059A
:1001F00000181305251E9385818A6377B500232097
:1002000005001105E36DB5FE73F00232171500000D
:10021000130525DFEF00905BEF001062014581457B
:10022000F1226F00505B01A073E00232828073F014
:0602300002328280000092
:100240006E6D690A00000000747261700A0000009F
:100250000A50726F6772616D2068617320657869FA
:10026000746564207769746820636F64653A000080
:100270003078000034180008E81800083E1800081C
:10028000E8180008DA180008E81800083E18000806
:100290003418000834180008DA1800083E1800085E
:1002A0001A1800081A1800081A180008421800083E
:1002B0001C1D00081C1D0008341D0008161D000828
:1002C000161D0008C21D0008341D0008161D000878
:1002D000C21D0008161D0008341D0008141D00086A
:1002E000141D0008141D0008C21D000800010202B0
:1002F00003030303040404040404040405050505BE
:100300000505050505050505050505050606060699
:10031000060606060606060606060606060606067D
:100320000606060606060606060606060707070769
:10033000070707070707070707070707070707074D
:10034000070707070707070707070707070707073D
:10035000070707070707070707070707070707072D
:100360000707070707070707070707070808080819
:1003700008080808080808080808080808080808FD
:1003800008080808080808080808080808080808ED
:1003900008080808080808080808080808080808DD
:1003A00008080808080808080808080808080808CD
:1003B00008080808080808080808080808080808BD
:1003C00008080808080808080808080808080808AD
:1003D000080808080808080808080808080808089D
:1003E000080808080808080808080808411106C68F
:1003F000EF0080660145E926B707002023A8073CE7
:10040000EF00606601E913052003EF00A066EF002E
:1004100080657DD501456D262920B2400145410109
:1004200082800145930580021306000A930680022C
:1004300037F70000130797A6EF0060461305000585
:10044000D14551469306E074EF00604F1305000557
:100450009305C0030946C14637F70000130707DCC0
:10046000EF00A039294573000000411122C42A84FD
:10047000371501409145130505C006C6EF004074CD
:10048000894537350140EF00207D7DD9A28537357C
:100490000140EF00E07A854537350140EF00C07B31
:1004A0007DD937350140EF00E0792244B24037155D
:1004B00001409145130505C041016F0020704111B5
:1004C00022C42A8437150140130505C0854506C698
:1004D000EF00C06E22852244B240410179B741113C
:1004E00022C42A84371501408545130505C006C678
:1004F000EF00C06C135584001375F50FBD371375ED
:10050000F40F2244B24041018DB7411122C42A8424
:1005100037150140130505C0854506C6EF00406A42
:1005200022852244B240410189B701114EC6AA89F1
:100530001305A00206CE22CC26CA4AC8AE84328950
:100540003684E13713851900593F13051900413FDF
:100550001305B0025D3F1385A40151371305A401B3
:10056000BD3F6244F240D2444249B2491305C00241
:10057000056161BF3715014079719145130505C0CB
:1005800006D6EF00A0634800EF00E0659307401037
:100590003EC28D473ECC930700203EC84C00C14769
:1005A000373501403ECE02C402C602CAEF004065A4
:1005B0009D4537350140EF00606937350140EF0058
:1005C0008067B2504561828041111305206006C6E4
:1005D00022C4EF00C05F13053060EF00405F1305D9
:1005E0000060EF00C05E1305C060EF00405E37148E
:1005F0000140130504809306000E0D46E145292BAA
:10060000130504C091460D46C1453923A5378D46D3
:100610000D46130504C0C1450123130504C08D45D3
:10062000EF00005A8945130504C0EF006059130517
:10063000800C89218945130504C0EF0020585145DD
:1006400015294545D935130540062D2113051002FE
:100650006D3D1305100B553D154595351305A0034C
:10066000B93D1305A003A13D1305200B793D1545A8
:10067000B9351305A003A1351305A003893513056A
:10068000300B61351545253D1305A0030D3D1305C0
:10069000A0033535154525351305A0030D35130584
:1006A000A003313D1305400B8D350D45093D130564
:1006B000000CA13D130520061935094509351145E2
:1006C000FD3B1305100C91351305000CCD3B1305B4
:1006D000200C253D3545E5330145D5331305300C58
:1006E0002D351305D008E13B1305A006C93B1305C2
:1006F000400C213D1305D008D9331305E00EC1335A
:100700001305500C193539455D3B1305000EF53BBB
:100710004145753339456533094555330D454533F5
:100720003945713B1D45613B0945513B1D45413BE9
:100730002945713349456133130570024933130567
:100740007003B53B0145A53B3545953B3945853B98
:100750004145B5331305100E4D3B41458D333945A9
:10076000B93B0D45A93B0D45993B3D45893B194595
:10077000B9330945A93321459933294589334D4575
:100780003D3B13056002253B130560030D3B01450E
:100790003D3335452D3339451D3341450D33130563
:1007A000A003A5331545213B13056003B93B130591
:1007B000800731332244B240130590024101B1B3A6
:1007C00041114AC09306F0042A891306F0098145B5
:1007D000014526C206C622C49304000AB933130495
:1007E00000054A857D14E5396DFCFD14EDF8B24035
:1007F00022449244024941018280011122CC4AC81C
:100800004EC606CE26CA52C456C293070002B2890B
:1008100036843A896394F604B70400209384040E66
:100820009386F5FF1306F5FFA29622963304840201
:10083000ED39370A0020A14A0D841374F40FB3096F
:100840003403CE94269463908402F2406244D244EE
:100850004249B249224A924A05618280B704002087
:100860009384040075BF814983C704004A85B3D7C8
:100870003741858B99E303250A3D85098D31E39541
:1008800059FF8504C9B7411122C4AE8632842A8635
:1008900006C6613922852244B240410189B13971CD
:1008A00022DC26DA4AD84ED662CC6AC806DE52D49A
:1008B00056D25AD05ECE66CA6EC63304A6402A8986
:1008C000AE893A8DB384B640054C63478000014C35
:1008D00001C4330480407D5C854C63479000814CAB
:1008E00081C4B3048040FD5C228A63539400268A4D
:1008F000014B814A814B930D1A006A86CE854A8549
:10090000A29A5137269B63555A01B38A4A4162998C
:1009100063556A01330B4B41E699850BE3EFBBFD51
:10092000F2506254D2544259B259225A925A025B3E
:10093000F24B624CD24C424DB24D21618280330762
:10094000C6025D71A2C4A6C2CAC056DA5AD886C60B
:100950004EDE52DC5ED662D466D26AD06ECEAA8AF1
:100960002E8BB68432840149B3092B41B38B8A4064
:10097000CE8526865E853AC6330D54012937CE854D
:1009800026866A850937338A2A41330C6401268614
:10099000E2855285CD3DB30C8B40931D1900268610
:1009A000E6855285CD35EE992686CE856A85E13D70
:1009B0003305BA012686E6852AC4F1352245268606
:1009C000E285D1352686CE855E85753D0509B3075E
:1009D00029033247B3068402B6976353F7007D14A8
:1009E000E35424F9B640264496440649F259625A23
:1009F000D25A425BB25B225C925C025DF24D616155
:100A0000828037150140930600100D46914513056D
:100A1000058019A241111305206006C64D2A37151D
:100A200001408D460D46814513050580F520371799
:100A300002405C43B786001013059060D58F5CC3FD
:100A400079223727014083278740B24093E7170078
:100A50002324F74041018280411106C65D375D3F86
:100A6000B240410195B637150140930500101305BA
:100A7000058089AA79714AD04ECE5AC806D622D4AA
:100A800026D252CC56CA5EC662C466C22A8BC52C18
:100A9000AA892E89ED24AA842E846394A900E30BED
:100AA000B9FEB707002003A9873C83A9C73CB70B51
:100AB0000020F124AA87058DB3B7A700818D9D8DF5
:100AC000EF100037AA8A03A50B3C2E8AEF10603185
:100AD0004A86CE86EF00500EAA8C5A852E8CEF10D7
:100AE00040302A86AE866685E285EF00906B2A86C6
:100AF000AE865685D285EF007060E34C05FAB250A1
:100B0000225492540259F249624AD24A424BB24BA1
:100B1000224C924C4561828093F7050193F8F500D1
:100B200099C3B3E8C8008147054EBD4E130F80023C
:100B3000930F800421433316FE00758E1DC2139758
:100B40002700832205003398EE001348F8FF33781E
:100B500058003397E800336707016399E50550C9EA
:100B600018C18507E39967FC054EBD4E130F80023F
:100B7000930F800441433316FE00758E05C613970C
:100B800027000117832245003398EE001348F8FF31
:100B9000337858003397E80033670701639CE50119
:100BA00050C958C18507E39867FC8280E39AF5FB3A
:100BB00010C97DB7E397F5FF10C9E5B70CC982806E
:100BC0004CC9828008456D8D3335A0008280135753
:100BD0006500B71702403E97144385473395A70039
:100BE000558D08C38280232005002322050023247D
:100BF000050023260500232A0500232C05008280FA
:100C00001C410D6713070704D4417D8F9C41D58F8C
:100C10009445D58FD445D58F9449D58FD449D58F58
:100C2000944DD58FD98F1CC15C4D7D771307F77F0D
:100C3000F98F5CCD82801C4193E707041CC1828040
:100C40004CC5828048454205418182801C4109672C
:100C5000D98F1CC10CC9828008456D8D3335A00029
:100C60008280B71702409843B706FFE0B1061367CA
:100C7000170098C3D843758FD8C39843B706F7FEBB
:100C8000FD16758F98C39843B706FCFFFD16758F48
:100C900098C3D843B70601DFFD16758FD8C323A6C6
:100CA00007029843B706F7EAFD16758F98C3370712
:100CB000FF0098C794434167D98E94C39307F7FF09
:100CC0003717024014431396E60063440600FD17ED
:100CD000F5FBB717024098439316E70063C306007D
:100CE00001A0D843B706C4DFFD16D8C3D843D8C384
:100CF000D84313670740D8C3D843758FD8C3D843A8
:100D0000B7062920558FD8C3D857BD76758FD8D749
:100D1000D857C166938616F1558FD8D79843B70632
:100D20000004558F98C3B7170240984393164700A5
:100D3000E3DD06FE9843B7060010558F98C3B7173A
:100D40000240984393162700E3DD06FE9843B7065A
:100D50000001558F98C3B717024098439316670058
:100D6000E3DD06FED843719BD8C3D8431367270041
:100D7000D8C3371702405C43A18BF5DF8280B707E9
:100D800000D1D8438843CC43E39DE5FE8280B7077A
:100D900000D223800700A38507009317450037156D
:100DA00000D23E95B71700D263E3A700828023A04C
:100DB0000700C107D5BFF327503093F707FC93E72F
:100DC0003700739057308280000000000000000060
:100DD0000000000000000000000000000000000013
:100DE0000000000000000000000000000000000003
:100DF00000000000000000000000000000000000F3
:100E00005D7106C012C216C41AC61EC82ACA2ECCEC
:100E100032CE36D03AD23ED442D646D872DA76DCDA
:100E20007ADEFEC0F322103496C0F322003096C260
:100E3000F322407C96C4732520348A85E1208642C3
:100E400073901234964273900230A6427390427CA3
:100E500082401242A2423243C2435245E2457246A8
:100E600082561257A2573258C258525EE25E725FE3
:100E7000864F616173002030000000005D7106C084
:100E800012C216C41AC61EC82ACA2ECC32CE36D0FA
:100E90003AD23ED442D646D872DA76DC7ADEFEC04A
:100EA00073D0E87E7350F97E73D0B97EF390D07E14
:100EB00073700430B6427390427CA6427390123431
:100EC00096427390223482401242A2423243C2437D
:100ED0005245E245724682561257A2573258C258BE
:100EE000525EE25E725F864F616173002030B7052B
:100EF00000084111154693850524054506C6BD2CFD
:100F000005451D204111856722C406C6FD172A84A8
:100F10006313F500E93FB70500081546938585245E
:100F20000545A92C228509207971B705000822D42E
:100F30007D462A84938505250A8506D6B5227946FD
:100F40008A850945252CA28509450928B705000889
:100F500005469385C5240945152401A079714AD019
:100F60002E89B705000809469385052722D426D285
:100F70004ECE52CC56CA06D6AA84714401243D4AAC
:100F8000A54AF159B3178A00B3F72701B3D78700F1
:100F900093F7F70F63E9FA0293870703E207E18704
:100FA00005469305F10026857114A307F100F92287
:100FB000E31A34FDB250225492540259F249624A63
:100FC000D24A4561828093877703C9BFAA8581464B
:100FD00001460145DDA24111B717000822C406C62B
:100FE000938727242A8499C38145A12CB727000819
:100FF00003A587001C5591C382972285353741117F
:10100000B727000822C4372400081387C700130439
:10101000C400198C26C206C609849384C70011E453
:101020002244B2409244410109A67D149317240042
:10103000A6979C438297E5B74111B727000822C4C1
:10104000372400081387C7001304C400198C26C274
:101050004AC006C6098481441389C7006398840284
:101060007D24B7270008372400081387C70013041E
:10107000C400198C098481441389C700639F8400CC
:10108000B240224492440249410182809397240055
:10109000CA979C4385048297D1B793972400CA9737
:1010A0009C4385048297D9BFB3C7A5008D8BB30637
:1010B000C50081E78D4763EEC700AA876378D50A2C
:1010C00003C7050085078505A38FE7FEE3EAD7FE82
:1010D000828013773500AA8711CB03C705008507E7
:1010E0008505A38FE7FE13F73700FDB713F7C6FF9B
:1010F000130607FE63FBC70483A3050083A2450014
:1011000083AF850003AFC50083AE050103AE450183
:1011100003A3850183A8C50123A0770023A257005C
:1011200003A8050223A4F70123A6E70123A8D701FA
:1011300023AAC70123AC670023AE1701938545029C
:101140009387470223AE07FF75B72E883E866360FC
:10115000E6021388D7FF0146636607010D071D8F5E
:101160001376C7FFB297B295E3ECD7F48280832859
:10117000080011061108232E16FFD1BFB707002063
:10118000B2862E86AA8503A5473C09A0411122C438
:1011900026C22A842E85B285368606C623A2018AF7
:1011A000752AFD576316F50083A7418A91C31CC0B9
:1011B000B2402244924441018280370800208327B4
:1011C000483DAA888DE7370700201305873D232A6D
:1011D000A83C37080000130308009307873D630805
:1011E0000300832708002324F5089307873DD8438D
:1011F0007D487D556346E804638D080203A887088F
:101200006300080413152700429510C1032308103A
:1012100005463316E6003363C300232068102320FD
:10122000D50889466397D80083264810558E232217
:10123000C810930617000A07D4C3BA978CC7014594
:101240008280797152CC56CA5AC862C406D622D45A
:1012500026D24AD04ECE5EC666C2AA8A2E8A370BE6
:101260000020054C03244B3D930B4B3D11C84440DB
:10127000832984081389F4FF8A04A294635F090018
:10128000B250225492540259F249624AD24A424B15
:10129000B24B224C924C45618280630E0A006395EA
:1012A00009007D19F114D9BF93172900CE9783A7A0
:1012B0000708E39847FF5840DC407D176318270371
:1012C00023222401F9DF832C44006388090083A6CC
:1012D000091033172C01F98E89EE8297584083A7A5
:1012E0000B00E31197F9E30EF4FAADBF23A204005B
:1012F000D1BF93162900CE968C4283A64910758FD4
:1013000001E756858297D9BF2E858297C1BF4111CB
:1013100006C6EFF01F9513057005EFF05FA7EFF01D
:101320009FA9B24041016FE03FF08280411126C287
:10133000B744014022C49375F50F2A8413850480B5
:1013400006C69384048099289D452685A1286DDDD5
:10135000B24022852244924441018280011122CC74
:1013600026CA4AC84EC606CEB2842E843389C5002A
:10137000A949631A2401F24062444249B2492685D0
:10138000D24405618280034504004D378347040041
:10139000639437013545593F0504E1BF93F5F51FC7
:1013A0004CC1828093D7650093F7F73FAA97884393
:1013B0003355B50005898280797193D7450126D2CE
:1013C0004AD052CC5EC662C49394C50006D622D4DD
:1013D0004ECE56CA5AC8139757012A89B28B368CFB
:1013E000B18013DAF50149C793FAF77F9307F07FCD
:1013F000638AFA0C9359D5018E04B3E49900B709B6
:101400008000B3E9340113143500938A1AC0014BEC
:1014100093574C019314CC0013975701B18093F567
:10142000F77F135CFC0171C39307F07F638AF510AB
:101430001395340093D7DB015D8DB7048000C98C10
:10144000939F3B00138515C0014693172B00D18F46
:10145000FD173947B3468A01B385AA406364F71084
:10146000370700088A0713074727BA979C438287E4
:10147000B3E9A400638209069DC82685EF001035F4
:10148000930755FF71476349F702F549130485FF38
:10149000B389F940B3948400B3593901B3E9990091
:1014A000331489009305D0C0B38AA5408DB7EF00EF
:1014B000F03113050502E9B7930485FDB3199900CE
:1014C0000144CDB7B3E9A400638C09002A84A6893E
:1014D000930AF07F0D4B2DBF0144814A054B0DBF90
:1014E0000144930AF07F094B25B7B3EF740163827F
:1014F0000F069DC82685EF00702DAA85938755FF9E
:1015000071476349F702F546938F85FF9D8E3395AA
:10151000F401B3D6DB00B3E4A600B39FFB011307CD
:10152000D0C03305B7400DB75E85EF00302A930574
:101530000502E9B7138585FDB394AB00814FC5B7AC
:10154000B3EF7401638B0F00DE8F1305F07F0D4640
:10155000EDBD814401450546CDBD81441305F07FB5
:101560000946E5B563E634016396992A6364F42B72
:101570001396F901135714009317F40193D9190026
:101580003364E6001395840093D88F01B3E8A80074
:10159000418133D8A902939E080193DE0E011357AF
:1015A000040113938F00B3F4A902C28F33860E0394
:1015B0009399040133673701637CC7004697930F03
:1015C000F8FF636717016375C700930FE8FF46973D
:1015D000118F335EA702420441803377A7027286DF
:1015E0003388CE034207418F637C07014697130679
:1015F000FEFF63671701637507011306EEFF469749
:1016000033040741C20F4168B3EFCF00130EF8FF58
:1016100013D60F0133F7CF01135F0301337EC301EC
:10162000B303EE02B304C6033307EF02B302E603CB
:101630003306970013D70301329763739700C29262
:10164000135607011696C162FD12337857004208FF
:10165000B3F353001E986367C400FE84631EC40284
:1016600063FC07039A9733B7670046973A949384CD
:10167000FFFF63E688006391880263EF670063669B
:10168000C400631B860063F907019A9733B76700AC
:1016900046979384EFFF3A9433880741118CB3B790
:1016A00007011D8CFD5F6387880EB35FA40213578B
:1016B00008013374A4027E86B387FE034204598C6A
:1016C000637CF40046941386FFFF6367140163751F
:1016D000F4001386EFFF46941D8C3357A402420892
:1016E000135808013374A402BA87B38EEE02420481
:1016F00033648800637CD40146949307F7FF6367E3
:1017000014016375D4019307E7FF469442065D8E8A
:1017100093170601C183135706013308EF02330400
:10172000D441330FFF02B38EC703330EC70393D7E1
:101730000E01729FFA9763F4C70141673A9813D775
:101740000701429741687D1833F507014205B3FE52
:101750000E0176956366E4006310E41AB28F1DC92A
:101760004694930FF6FF636114036366E400631409
:10177000E418637DA3009317130033B367009A98AE
:10178000930FE6FF46943E836314E4006304650010
:1017900093EF1F009387F53F635BF00A13F77F0019
:1017A00001CF13F7FF0011466308C70013864F00EF
:1017B000B33FF601FE94B28F13977400635807008D
:1017C000B70700FFFD17FD8C938705401307E07FE7
:1017D0006342F70693DF3F001397D4013367F701A5
:1017E00013D53400D2073706F07F3205B2502254A9
:1017F000F18F31815D8DFE06B367D5009254025999
:10180000F249624AD24A424BB24B224C3A85BE85DB
:1018100045618280FD158147B5B3D286CE84A28F03
:101820005A868D47630BF60A8547630FF60A894788
:10183000E312F6F6014501479307F07F65B7E286AC
:10184000CDB7B7040800814F81460D46D9BF054585
:101850001D8D130780036349A7087D476349A704CB
:101860009385E541B397B40033D7AF00B395BF007C
:10187000D98FB335B000CD8F33D5A40013F77700DF
:1018800001CF13F7F70011466308C700138747001D
:10189000B337F7003E95BA871317850063490704ED
:1018A0001317D5018D835D8F0D81814725BF0557A6
:1018B000B307F74013060002B3D7F40001476306ED
:1018C000C5009385E5433397B400B36FF701B33F89
:1018D000F001B3E7F701014555B7370508000147A7
:1018E0009307F07F8146FDBD014501477DBF01455E
:1018F00001478547C5BD7E86B28F59BD37071000A9
:101900007D1713D84501B378B700AA872A831378C7
:10191000F87F13D5F501930EF07F93D54601758FAF
:10192000328E93F5F57FFD826318D801B3EEF8008F
:1019300063840E06094582806396D501B36EC700A5
:10194000E39A0EFE631C0804B3E7F80093B7170090
:1019500099E1598E0DCE81EB6314D50063D9050151
:101960000DC57D5582807D5591C636858280635434
:10197000B80065D98280E36517FF639CE800E361E6
:101980006EFEE368C3FF0145828005458280E5FF66
:10199000C1BFE3E0E8FEC5BFE38205FBD5FD81479B
:1019A0004DBF797193D7450122D426D24ECE52CC69
:1019B00056CA9394C50006D64AD05AC85EC6139735
:1019C00057012A84B289B68AB18013DAF50159C366
:1019D00013FBF77F9307F07F6304FB0C9357D5014C
:1019E0008E04DD8CB7078000DD8C13193500130BD6
:1019F0001BC0814B93D74A011394CA001397570118
:101A0000318013F5F77F93DAFA014DCF9307F07F1A
:101A10006300F51093D7D9010E045D8CB7078000E1
:101A20005D8C130515C093973900014793962B00E1
:101A3000D98E5A95FD16394833465A01930515003B
:101A40006369D80E370500088A061305052BAA9688
:101A50009442828633E9A400630D090485C8268573
:101A6000B523130755FFF14763C6E702F54713098E
:101A700085FF998FB3942401B357F400DD8C33199B
:101A80002401130BD0C0330BAB40A5B78123130542
:101A90000502C1BF930485FDB31494000149D5B775
:101AA00033E9A400630B09002A89130BF07F8D4BE7
:101AB00091B78144014B854B35BF8144130BF07FB7
:101AC000894B0DBFB3673401A1CF05C82285FD291D
:101AD000930655FFF14763C7D7027547930785FF04
:101AE000158F3314F40033D7E900598CB397F900FC
:101AF0001307D0C03305A7400DBF4E85C12913057C
:101B00000502F9B7130485FD339489008147CDB7E9
:101B1000B367340191CBCE871305F07F0D4739B7FA
:101B200001440145054719B701441305F07F0947F2
:101B3000F5BD416F1307FFFF9356090113D307014A
:101B40003379E900F98FB30823033308F902B38F1F
:101B5000F602B38EF80193580801F698338E6602A8
:101B600063F3F8017A9E93D20801B3F8E800337862
:101B7000E800135F0401C208798CC298338786029B
:101B80003308890233092F03B30EE9001359080102
:101B90007699B386E6036374E9004167BA96935E6B
:101BA0000901B69EC166938FF6FF3379F901337848
:101BB000F80113D704014209B3F4F401B383970287
:101BC0004299CA9233089302B307F702B30FE302B4
:101BD0003303F80013D803011A986373F800B69F13
:101BE00093570801C166BE9F9387F6FF3378F800CC
:101BF000B3F7F300B303940242083E98330487021C
:101C0000B3049F023303EF02A29413D70301BA94E3
:101C100063F384003693C167FD17B3F6F400C20680
:101C2000B3F7F300169EBE9633392E01F69633872E
:101C30002601429E33380E01330FF701B3020F0124
:101C4000B3B6D60133372701558F33B80201C180AF
:101C5000B33FFF01269733E80F0193179E00429789
:101C60001A97B3E717012607B337F000135E7E011A
:101C700013D47201B3E7C701A60293167700598CFB
:101C8000B3E7570063DA060A13D71700858BD98F9D
:101C90001317F401D98F05809386F53F6350D00A5E
:101CA00013F7770001CF13F7F70011456308A7007A
:101CB00013874700B337F7003E94BA8713177400B1
:101CC00063580700370700FF7D17798C938605401E
:101CD0001307E07F634ED70E13D737009317D40155
:101CE000D98F0D80139746013204B706F07F758FA8
:101CF0003180598C7E06B2503367C400225492540E
:101D00000259F249624AD24A424BB24B3E85BA85E9
:101D10004561828052862684CA875E878946630928
:101D2000D70A8D46630FD7088546E317D7F60144D7
:101D300081479DA05686DDB7AA85B9BF0545158D9B
:101D400013078003E345A7FE7D476349A7049385F6
:101D5000E5413317B400B3D6A700B397B700558F4A
:101D6000B337F000D98F3354A40013F7770001CFB5
:101D700013F7F70091466308D70013874700B3377E
:101D8000F7003E94BA8713178400634807041317BB
:101D9000D4018D83D98F0D808146A9B70557158F42
:101DA000130800023357E40081466306050193855A
:101DB000E543B316B400D58FB337F000D98F014493
:101DC0006DB73704080081479306F07F014619BFBD
:101DD000014481479306F07F31B70144814785462E
:101DE00011B7411122C406C62A8421C1C522130796
:101DF000E041A947098F63C4A702AD47898F550504
:101E0000B357F4003314A400B2402285B207224431
:101E10005207B183B366F700B6854101828093070C
:101E200055FFB317F4000144C5B781470147E9BF27
:101E3000011106CE22CC26CA4AC84EC652C4B36788
:101E4000B500638707122A842E89AE84ADC12E8522
:101E5000B52AAA89130AE043330A3A41930730436B
:101E600063C147072D47A287635337031307A002B7
:101E7000634337059304B002138759FFB384344199
:101E8000B3549400B315E900CD8CB317E400F240CD
:101E900062449395C400520AB1813367BA00D244B8
:101EA0004249B249224A3E85BA8505618280392A73
:101EB0009309050245B7938559FDB314B4008147D2
:101EC000F9B79307604363D34703138689032285D9
:101ED000CA85C1284D8D2146B334A000CA8522850C
:101EE00033063641512833E4A4002E892147A287C6
:101EF000CA85635437031307700263453707138796
:101F000089FFB315E90013098002330939413359B8
:101F10002401B365B900B317E400370780FF7D17CC
:101F2000F98D13F7770001CF13F7F7009146630897
:101F3000D70013874700B337F700BE95BA871397CA
:101F40008500635A0700370780FF7D17130AF043A7
:101F5000F98D330A3A418D831395D501C98F93D4F6
:101F6000350035B7938589FDB315B400814775B742
:101F700081448147014A21BF01CE93070002918F1E
:101F80006349F000130506FE014733D5A500BA8565
:101F9000828033D7C5003355C500B395F5004D8D0C
:101FA000FDB701CE93070002918F6349F0009305BE
:101FB00006FE0147B315B5003A8582803317C50088
:101FC000B395C5003355F500C98DFDB7C16763767C
:101FD000F5029307F00FB3B7A7008E073707000885
:101FE000930600029D8E3355F5009307C72E3E954C
:101FF000034505003385A640828037070001C147AD
:08200000E36EE5FCE147D9BFE6
:042008006003002051
:10200C008000800080008000FC1F841084108410ED
:10201C0084108410FC1F84108000800080008000DD
:10202C00F80F0808F80F0808F80F8000FF7F000071
:10203C00F80F08080808F80F80008410A220400050
:10204C000000FE3F0220F22702200220FA2F22215C
:10205C0022212221122912290A2E0220FE3F0220BF
:10206C00800080008000FC1F841084108410FC1FF2
:10207C00841084108410FC1F845080408040007FAA
:10208C000000FE1F00080004000280018000FF7F9A
:10209C00800080008000800080008000A000400054
:1020AC001008B8080F0908090808BF0808091C0916
:1020BC002C080A78CA0F0908080808080808080834
:1020CC00080408040804C87F3F0408040804A83F57
:1020DC0018210C110B12080A0804080A8A116460F2
:1020EC0000000000000000000080000000800100E3
:1020FC0000800100008001000080010000800100D0
:10210C001080010CF0FFFF0F3080010430800104BF
:10211C0030800104308001043080010430800104DF
:10212C003080010430800104F0FFFF07308001048F
:10213C00308001040080010000800100008001005B
:10214C00008001000080010000800100008001007F
:10215C0000800100008001000080000000000000F1
:10216C0000000000000000000000000000018001E1
:10217C0000FFFF01000380010003800100FFFF014D
:10218C00000380010003800100FFFF01008181003A
:10219C00000003000000031CFCFFFF3F0000400098
:1021AC000003C00100FFFF010003C0000003C000DA
:1021BC000003C00000FFFF0000014100000401000B
:1021CC00000E710000078101800101076000010E03
:1021DC001898011C04E0011800C000000000000069
:1021EC00000000000000000000000008F0FFFF1FCE
:1021FC003000000C3000000C3000100C30FE3F0C96
:10220C003004000C3000000C3000000C3000000CCE
:10221C003000C00CF0FFFF0D3030060E3030060CD5
:10222C003010060C3010060C3010060C3018860CD2
:10223C003018860C3008060D300C860D3006EE0F6B
:10224C003002FC0D3001000CF000000C3000000CD2
:10225C00F0FFFF0F3000000C100000040000000025
:10226C00000000000000000000C0000000C00100E1
:10227C0000C0000000C0000000C0000000C0000052
:10228C00E0FFFF0360C0000360C0000360C00003F8
:10229C0060C0000360C0000360C00003E0FFFF03E8
:1022AC0060C0000360C0000360C0000360C0000396
:1022BC0060C00003E0FFFF0360C0000160C00000CD
:1022CC0000C0000800C0001000C0001000C00018C2
:1022DC0000C001380080FF1F00000000000000005B
:1022EC0000000000000000000000000000000003DF
:1022FC00C0FFFF07000080070000C0000000600066
:10230C000000180000000C00008003000080030097
:10231C0000800100008001080080011CFCFFFF3FD1
:10232C00008001000080010000800100008001009D
:10233C00008001000080010000800100008001008D
:10234C00008001000080010000800100008001007D
:10235C0000FC010000E00000004000000000000054
:10236C000000000000000000000000000000000061
:10237C000000000000000000000000000000000051
:10238C000000000000000000000000000000000041
:10239C000000000000000000000000000000000031
:1023AC000000000000000000000000000000000021
:1023BC000000000000000000000000000000000011
:1023CC0000F36F0660030020000000000040AF40E7
:040000050800015C92
:00000001FF
